S01200004E54495F544553545F312E73726563F8
S11300000C942A000C943F000C943F000C943F0085
S11300100C943F000C943F000C943F000C943F0060
S11300200C943F000C943F000C943F000C943F0050
S11300300C943F000C943F000C943F000C943F0040
S11300400C943F000C943F000C943F000C943F0030
S11300500C943F0011241FBECFE5D8E0DEBFCDBF16
S113006010E0A0E6B0E0E2EFF2E002C005900D92ED
S1130070A036B107D9F70E9489000C9477010C943B
S1130080000041E063E080E00E949D0041E062E006
S113009080E00E949D0041E065E081E00E949D00B7
S11300A041E066E081E00E949D0041E060E081E083
S11300B00E949D0041E061E081E00E949D0041E0DA
S11300C062E081E00E949D0041E064E081E00E94E2
S11300D09D000895CF93C82F482F417060E081E0C0
S11300E00E940A01C1FB442740F961E081E00E94BB
S11300F00A01C2FB442740F962E081E00E940A0140
S1130100C3FB442740F964E081E00E940A01CF91D7
S113011008950E944100C0E00DC08C2F0E946A0027
S11301202FEF83EC99E0215080409040E1F700C02C
S11301300000CF5FCA3088F3EECF813001F130F098
S11301408230B1F1833009F44CC00895413059F440
S11301502AB381E090E002C0880F991F6A95E2F704
S1130160822B8ABB08952AB381E090E002C0880FF5
S1130170991F6A95E2F7809582238ABB08954130DE
S113018059F427B381E090E002C0880F991F6A9563
S1130190E2F7822B87BB089527B381E090E002C089
S11301A0880F991F6A95E2F78095822387BB08958B
S11301B0413059F424B381E090E002C0880F991FC4
S11301C06A95E2F7822B84BB089524B381E090E022
S11301D002C0880F991F6A95E2F78095822384BB39
S11301E00895413059F421B381E090E002C0880FB2
S11301F0991F6A95E2F7822B81BB089521B381E0B0
S113020090E002C0880F991F6A95E2F780958223D7
S113021081BB0895813001F130F08230B1F1833037
S113022009F44CC0089541110CC02BB381E090E057
S113023002C0880F991F6A95E2F7809582238BBBD1
S113024008952BB381E090E002C0880F991F6A954E
S1130250E2F7822B8BBB089541110CC028B381E0D7
S113026090E002C0880F991F6A95E2F78095822377
S113027088BB089528B381E090E002C0880F991FDD
S11302806A95E2F7822B88BB089541110CC025B30F
S113029081E090E002C0880F991F6A95E2F780958B
S11302A0822385BB089525B381E090E002C0880FC6
S11302B0991F6A95E2F7822B85BB089541110CC002
S11302C022B381E090E002C0880F991F6A95E2F79B
S11302D08095822382BB089522B381E090E002C01E
S11302E0880F991F6A95E2F7822B82BB0895F894D0
S10502F0FFCF3A
S9030000FC
